:0E0000000C946F000C9400000C9400000C9403
:10000E0000000C9400000C9400000C9400000C9462
:10001E0000000C9400000C9400000C9400000C9452
:10002E0000000C9400000C9400000C9400000C9442
:10003E0000000C9400000C9400000C9400000C9432
:10004E0000000C9400000000456D626564646564F8
:10005E0045786572636973650053696C61686B619D
:10006E006E2050696C6968205465726D696E616CA2
:10007E00005465726D696E616C203100312E5049ED
:10008E005220322E5420332E434859005465726D3F
:10009E00696E616C2032005465726D696E616C2000
:1000AE0033005465726D696E616C2034000001007E
:1000BE002D4E414E00494E46000080C00200040005
:1000CE00540001006801BC0002006C01C800000071
:1000DE00F894EE27ECBBF1E0FBBFEBBFE5BF8DE084
:1000EE00A2E0BB27ED938A95E9F780E094E0A0E6C5
:1000FE00ED930197E9F7EAECF0E085919591009781
:10010E0061F0A591B59105901590BF01F001059094
:10011E000D920197E1F7FB01F0CFEFE5EDBFE4E0C3
:10012E00EEBFC0E6D1E00C945002E0E0EABBEBBBC0
:10013E00EFE0E7BBE0E0E8BBEFEFE4BBE0E0E5BB00
:10014E00EFEFE1BBE0E0E2BB0895E0E0E3BFE2BF2A
:10015E00ECBFEFBDEEBDEDBDECBDE7BDE6BDEBBD4D
:10016E00EABDE9BDE8BDE2BDE5BDE4BDE3BDE9BF65
:10017E00E5BFE4BFEAB9E0E8E8B9E0E0E7B9E4E8F2
:10018E00E6B9E0E0E0BFEDB9E6BF0895E4B7E0FD03
:10019E000CC0E4B7E1FD09C0E4B7E2FD06C0E4B768
:1001AE00E3FD03C0E4B7E4FF03C0E4B7E07EE4BFC1
:1001BE000895AA93E881E7B985E28A95F1F7369A10
:1001CE00349BFECF349AE4B1F5B10C94E502B499A8
:1001DE0008C009C00E94E70220F405C00E94E70291
:1001EE0010F0E1E00895E0E00895089594980E94DB
:1001FE00EE02809903C0E1E0F0E00895819903C01A
:10020E00E2E0F0E00895829903C0E3E0F0E00895A3
:10021E00949A95980E94EE02809903C0E4E0F0E073
:10022E000895959A97980E94EE02819903C0E0E096
:10023E00F0E00895979A0E94EE02D8CF1A930A938F
:10024E0000E010E0042C052869F40E94F202A6E5F5
:10025E00B0E00E94F902A7E6B0E00E94000309F0A8
:10026E00280157C0E1E0F0E0E415F50589F40E949D
:10027E00F202AFE7B0E00E94F9020E94080329F0F3
:10028E00009360011093610102C04424552441C0C3
:10029E00E2E0F0E0E415F50589F40E94F202AAE925
:1002AE00B0E00E94F9020E94080329F0E2E6F1E0B4
:1002BE000083118302C0442455242BC0E3E0F0E0F8
:1002CE00E415F50589F40E94F202A5EAB0E00E9459
:1002DE00F9020E94080329F0E4E6F1E0008311839D
:1002EE0002C04424552415C0E4E0F0E0E415F50501
:1002FE0081F40E94F202A0EBB0E00E94F9020E948B
:10030E00080329F0E6E6F1E00083118302C04424DD
:10031E005524BCC01A930A9391DF00E010E004301C
:10032E00E0E01E070CF0B1C0F801A0E6B1E0EE0F60
:10033E00FF1FAE0FBF1F0E9423033097B9F4F801C1
:10034E00309711F4C09811C0E130A0E0FA0711F413
:10035E00C1980BC0E230A0E0FA0711F4C29805C0B4
:10036E00E330A0E0FA0709F4C3988CC0E130A0E0B6
:10037E00FA0759F5F801309739F429DFE03011F01A
:10038E00C09A01C0C09820C0E130A0E0FA0739F44D
:10039E001EDFE03011F0C19A01C0C19815C0E230E5
:1003AE00A0E0FA0739F413DFE03011F0C29A01C071
:1003BE00C2980AC0E330A0E0FA0731F408DFE0305B
:1003CE0011F0C39A01C0C3985DC0E230A0E0FA07F5
:1003DE0059F5F801309739F4FDDEE03011F0C09A8E
:1003EE0001C0C09820C0E130A0E0FA0739F4F2DE77
:1003FE00E03011F0C19A01C0C19815C0E230A0E002
:10040E00FA0739F4E7DEE03011F0C29A01C0C29863
:10041E000AC0E330A0E0FA0731F4DCDEE03011F080
:10042E00C39A01C0C3982EC0E330A0E0FA0751F57D
:10043E00F801309739F4D2DEE03011F0C09A01C0E5
:10044E00C09820C0E130A0E0FA0739F4C7DEE030F2
:10045E0011F0C19A01C0C19815C0E230A0E0FA07B0
:10046E0039F4BCDEE03011F0C29A01C0C2980AC065
:10047E00E330A0E0FA0731F4B1DEE03011F0C39AB8
:10048E0001C0C3980F5F1F4F4ACF46CF09911991F4
:10049E0008954BDE5ADE7ADEA0E10E94B9023ADF01
:1004AE00FFCFAA93E5B3EF70AE2FE881E07FEA2B82
:1004BE00E5BB82E18A95F1F7AA9A82E18A95F1F776
:1004CE00AA9882E18A95F1F779C0AA93A881E9DF0B
:1004DE00E881E295E883A881E4DF88EB8A95F1F75D
:1004EE006DC0AA93E881F0E0E459FE4FE081A98146
:1004FE00AE0FEBDF7980688022960895A2E00E940D
:10050E000B03ACE0E2DFA1E00E940B03E0E06E2EF5
:10051E007E2E0895AA93A881AA3011F0791448F07E
:10052E00E0E0EA936394A62DDCDFA881AA3009F4FB
:10053E0045C07394A89AA881C8DFA8983FC0BA9303
:10054E00AA931A93E981FA813196E983FA83319756
:10055E00E4911E2FE03019F0A12FDCDFF3CF1881CC
:10056E0023960895AA93E4B3E06FE4BBA29AA09AEF
:10057E00A19AAA98A898A9989880E881E058E09343
:10058E006E01E881E054E0936F01A4E1B0E00E94B7
:10059E0019030E9411030E9411030E941103A0E28D
:1005AE0080DF84E191E00197F1F7A8E28EDFA4E00D
:1005BE008CDFA5E88ADFA6E088DFA0DF219608950C
:1005CE00A0E00E94E000E130A2E0FA070895AAE060
:1005DE00B0E00C9419030E948502E0E0EA93A0E0DB
:1005EE000C9478020E94A602E0E0EA93A1E00C943B
:1005FE0078020E94A6020E94FD008F01002E012AA1
:10060E000895AAE8B0E0F5CF0E946C02A3E0B0E036
:10061E000C941903A0E30E94580284E191E0019723
:10062E00F1F70895109639F08DEC9AE00197F1F7F5
:10063E00A8951197C9F70895ED91FC91119708951A
:00000001FF
