:0A0000000C948B010C9400000C948A
:10000A0000000C9400000C9400000C9400000C9466
:10001A0000000C9400000C9400000C9400000C9456
:10002A0000000C9400000C9400000C9400000C9446
:10003A0000000C9400000C9400000C9400000C9436
:10004A0000000C9400000C9453020C9400000C94D1
:10005A0000000C9400000C9400000C94C9010C944C
:10006A0000000C9400000C9400000C9400000C9406
:10007A0000000C9400000C9400000C9400000C94F6
:10008A0000000C9480020C9413020C9400000C944F
:10009A0000000C9400000C9400000C9400000C94D6
:1000AA0000000C9400000C9400000C94A2020C9422
:1000BA0000000C9400000C9400000C9400000C94B6
:1000CA0000000C9400000C9400000C9400000C94A6
:1000DA0000000C9400000C9400001027E803640050
:1000EA000A000100001000011000010001000100D7
:1000FA0001000B005700030001003C7469746C6531
:10010A003E4147563C2F7469746C653E3C68313EEB
:10011A004147562050726F6A6563743C2F68313EBE
:10012A003C68323E436C69656E742023313C2F680B
:10013A00323E3C627574746F6E3E5465737420422D
:10014A007574746F6E20313C2F627574746F6E3ED5
:10015A000000000000002B4950442C005550444137
:10016A005445004F4B0041542B4349504D55583D7F
:10017A00310D0A0041542B434950534552564552BA
:10018A003D312C38300D0A004E4F0053544154551E
:10019A00530041542B43495053544152543D342C3B
:1001AA0022544350222C223139322E3136382E3005
:1001BA002E323530222C38300D0A0041542B434957
:1001CA005053454E443D342C33330D0A00474554B1
:1001DA00202F4147562F736574416C6C2F25642F6D
:1001EA0025642F25642F25642F25642F25642F2548
:1001FA00640D0A005245534554530041542B52533F
:10020A00540D0A007465737400636D643D004F46B3
:10021A0046004F4E000D0A0A2564204259544520D3
:10022A004F4620444154412046524F4D20434841B5
:10023A004E4E454C2025640D0A000D0A2F2A2A2A03
:10024A00424547494E4E494E47204F46205448455D
:10025A0020444154412A2A2A2F0D0A000D0A2F2A26
:10026A002A2A454E44204F462054484520444154AA
:10027A00412A2A2A2F0D0A0041542B43495053453B
:10028A004E443D25642C25640D0A0025730D0A0091
:10029A0041542B434950434C4F53453D25640D0A65
:1002AA00000001002D4E414E00494E46000080C01C
:1002BA0001006212F80001006312FA0001006412E0
:1002CA00FC0001006612FE00010068120001010034
:1002DA006B1202010600001260010600061260019C
:1002EA0006000C12600106001212600105001812C5
:1002FA00130205001D12130204000B005C01010029
:10030A006E12AC0202007212B8020000F894EE27D4
:10031A00EFBBF1E0F5BFE5BFE0937400E093750031
:10032A00F8E1A895A4B7A77FA4BFF0936000E09373
:10033A0060008DE0A2E0BB27ED938A95E9F780E0A3
:10034A0090E2A0E0B2E0ED930197E9F7EAEBF2E080
:10035A0085919591009761F0A591B59105901590B9
:10036A00BF01F00105900D920197E1F7FB01F0CF73
:10037A008BBF8CBFE0E0EEBBEFEFEDBFE1E2EEBF7B
:10038A00C0E0D2E10C94DE05EA93FA93EFB7EA9360
:10039A001A930A931091C0000091C600E12FEC71E4
:1003AA0081F4E42D4394F0E0EE5DFD4E0083E0E23B
:1003BA00E41509F444246394E0E2E61511F4662492
:1003CA00F09A49C01A936620F1F3E32D3394F0E0D2
:1003DA00EE5DFD4E1081E0E2E31509F43324F89452
:1003EA006A947894E12FC2C2AA93E0916B12F0E06A
:1003FA00309741F4E091C000E072E1F3E881E093C4
:10040A00C6000BC0E130A0E0FA0739F4E091C80059
:10041A00E072E1F3E881E093CE003EC0EA93FA93FA
:10042A00EFB7EA931A930A931091C8000091CE008D
:10043A00E12FEC7181F4E52D5394F0E0EE5BFD4E73
:10044A000083E0E2E51509F455247394E0E2E71528
:10045A0011F47724F19A09911991E991EFBFF99171
:10046A00E99118951A937720F1F3E82D8394F0E037
:10047A00EE5BFD4E1081E0E2E81509F48824F89459
:10048A007A947894E12F72C2AA93E091C800E0723C
:10049A00E1F3E881E093CE00219608950A921A9238
:1004AA00FA926A937A938A939A93AA93BA93EA935B
:1004BA00FA93EFB7EA93EBEAE0938500E1EAE09377
:1004CA008400E1E0F0E0DE0EEF1EEAE0F0E0ED1578
:1004DA00FE050CF435D34CD24CD2E991EFBFF99119
:1004EA00E991B991A9919991899179916991F99033
:1004FA001990099018950A921A92FA926A937A9325
:10050A008A939A93AA93BA93EA93FA93EFB7EA93E0
:10051A00EDE2E0939500EFE0E093940088D2E99150
:10052A00EFBFF991E991B991A9919991899179913D
:10053A006991F990199009901895EA93FA93EFB78F
:10054A00EA93EDEDE0939500E0939400E1E0F0E0AA
:10055A00BE0ECF1EE991EFBFF991E9911895E0E837
:10056A00E0936100E0E0E0936100E2B9E1B9E5B946
:10057A00E0E8E4B9E0E0E8B9E7B9EBB9EAB9EEB91D
:10058A00EDB9E1BBE0BBE4BBE3BBE0930201E0935E
:10059A000101E0930501E0930401E0930801E0936F
:1005AA000701E0930B01EFEFE0930A01E0E0E4BDFD
:1005BA00E5BDE6BDE7BDE8BDE0938000E5E0E09378
:1005CA008100EBEAE0938500E1EAE0938400E0E051
:1005DA00E0938700E0938600E0938900E093880027
:1005EA00E0938B00E0938A00E0938D00E0938C0007
:1005FA00E093B600E093B000E093B100E093B2005C
:10060A00E093B300E093B400E0939000E5E0E09358
:10061A009100EDE2E0939500EFE0E0939400E0E0D2
:10062A00E0939700E0939600E0939900E093980096
:10063A00E0939B00E0939A00E0939D00E0939C0076
:10064A00E093A000E5E0E093A100E2EDE093A500CD
:10065A00EAE3E093A400E0E0E093A700E093A600B9
:10066A00E093A900E093A800E093AB00E093AA000E
:10067A00E093AD00E093AC00E0932001E093210108
:10068A00E0932501E0932401E0932701E0932601FA
:10069A00E0932901E0932801E0932B01E0932A01DA
:1006AA00E0932D01E0932C01E0936900E0936A0046
:1006BA00EDBBE0936B00E0936C00E0936D00E09378
:1006CA006800E0936E00E1E0E0936F00E0E0E09301
:1006DA007000E1E0E0937100E0937200E0E0E093E3
:1006EA007300E093C000E8E9E093C100E6E0E0931C
:1006FA00C200E0E0E093C500E7E4E093C400E0E074
:10070A00E093C800E8E9E093C900E6E0E093CA0094
:10071A00E0E0E093CD00E7E4E093CC00E0E0E09392
:10072A00D100E0933101E0E8E0BFE0E0E0937B0034
:10073A00E0937F00E0937A00ECBDE093BC00A4E173
:10074A000E940C0A78940895BA93AA93EA81FB81CD
:10075A00FA93EA93AA81BB810E946B09309719F038
:10076A00E1E00C948009E0E00C948009BA93AA9322
:10077A00EA81FB81FA93EA93AA81BB810E946B0901
:10078A003097C1F0EA81FB81FA93EA93AA81BB818F
:10079A000E946B09AA81BB81EA1BFB0BFF93EF93B3
:1007AA00A881B9810E945209AF91BF91EA0FFB1F3C
:1007BA000C948009EFEFFFEF0C948009AA93E8816B
:1007CA00F0E0F0970C945F0ABA93AA93E881F98152
:1007DA00FA93EA93A0E0B2E1B7DFE03011F40C94A7
:1007EA009A046297E1E0EC83E0E0ED83EA89FB8911
:1007FA00FA93EA93A6E0B2E1B9DFE88BF98BEC81D0
:10080A00FD813196EC83FD833297DE01EA0FFB1FEF
:10081A000F01EC81FD81A889B989EA0FFB1FAA891A
:10082A00BB89AE0FBF1FEC91D001EC93EC81FD8127
:10083A003297DE01AE0FBF1FAC91AA3301F7AC812C
:10084A00BD81169759F5A881B9DFA8EEB3E00E94D9
:10085A00800AEE87FF87A981B1DFA4E6B0E00E9493
:10086A00800AEC87FD87AA81A9DFAAE0B0E00E948E
:10087A00800AEA87FB87AB81A1DFE887F987EC85E5
:10088A00FD85AE85BF85EA0FFB1FAA85BB85EA0FEA
:10089A00FB1FA885B985EA0FFB1F40C0AC81BD814B
:1008AA001597F9F4A8818ADFA4E6B0E00E94800ACD
:1008BA00EC87FD87A98182DFAAE0B0E00E94800A66
:1008CA00EA87FB87AA817ADFE887F987EA85FB85C9
:1008DA00AC85BD85EA0FFB1FA885B985EA0FFB1F0A
:1008EA001DC0AC81BD81149789F4A88167DFAAE095
:1008FA00B0E00E94800AEA87FB87A9815FDFE88768
:10090A00F987AA85BB85EA0FFB1F08C0AC81BD81A8
:10091A00139731F4A88152DFE887F987EE83FF83C2
:10092A00EE81FF8162960C94BB09EFEFFFEF0C9406
:10093A00BB091A9310E0103240F4E12FF0E0EE5DAB
:10094A00FD4EA0E0A0831F5FF6CF10E0103240F406
:10095A00E12FF0E0EE5BFD4EA0E0A0831F5FF6CF33
:10096A00442433246624552488247724199108952D
:10097A0008950E94BD09E0E0EA93A1E00E94AC0953
:10098A00A6E6B1E00E94F909E0916C12E03029F480
:10099A00E1E0F0E0ED15FE050CF03FC0A6E6B2E19D
:1009AA00ED91FD913196FE93EE93A0916612B0916E
:1009BA006712A536E0E0BE072CF0E0E0E09366128D
:1009CA00E0936712E7E0EA93A1E00E94AC09ADE682
:1009DA00B1E00E94F909E1E0E0936D12E0E0E093F2
:1009EA006B12E0E7F1E0FA93EA9380E00E942D09A6
:1009FA002296A4E6B0E00E94610AEEE7F1E0FA93DB
:100A0A00EA9380E00E942D092296AAEFB0E00E94A4
:100A1A00610AE0E0E0936D1209C0E7E0EA93A1E021
:100A2A000E94AC09A2E9B1E00E94F90908950E9466
:100A3A00BD09E0E0EA93A1E00E94AC09A5E9B1E0B2
:100A4A000E94F909E0916D12E03029F4E1E0F0E04A
:100A5A00ED15FE050CF06AC0E7E0EA93A1E00E94FA
:100A6A00AC09ADE6B1E00E94F909E1E0E0936C124D
:100A7A00E0E0E0936B12ECE9F1E0FA93EA9380E0AC
:100A8A000E942D092296A4EFB1E00E94610AE5ECCA
:100A9A00F1E0FA93EA9380E00E942D092296A4EFEE
:100AAA00B1E00E94610AE7EDF1E0FA93EA93E1E02E
:100ABA00F0E060E070E00E949B0AE0916212FF277A
:100ACA00662777270E949B0AE0916312FF27662711
:100ADA0077270E949B0AE0916412F09165120E94A6
:100AEA00730A0E949B0AE0916612F09167120E94B3
:100AFA00730A0E949B0AE0916812F09169120E949F
:100B0A00730A0E949B0AE0916A12FF2766277727D9
:100B1A000E949B0A8CE10E942D096E96A4EFB1E017
:100B2A000E94610AE0E0E0936C1209C0E7E0EA93F0
:100B3A00A1E00E94AC09A2E9B1E00E94F909089576
:100B4A00DD24EE240E94BD09E0E0EA93A1E00E94C0
:100B5A00AC09AEEFB1E00E94F909A8EEB3E00E9439
:100B6A00610AE0916D12E03021F4E0916C12E030FC
:100B7A0009F015C0E7E0EA93A1E00E94AC09ADE6EE
:100B8A00B1E00E94F909E0E0E0936B12E5E0F2E0DF
:100B9A00FA93EA9380E00E942D09229609C0E7E0C1
:100BAA00EA93A1E00E94AC09A2E9B1E00E94F90926
:100BBA000895EF97A297D85087E5A0E0B0E0E4E067
:100BCA00F1E00E94AE0A10E000E0C9DCAEE0B2E05B
:100BDA000E94F909E0E0EA93A1E00E94AC09AEE0C4
:100BEA00B2E00E94F909E0E0EA93A2E00E94AC09AF
:100BFA00AEE0B2E00E94F909E0E0EA93A3E00E94C5
:100C0A00AC09AEE0B2E00E94F909662011F1E1E018
:100C1A00E0936C1211E0BB24CC24003031F0E09355
:100C2A006B12D0DBAE2F30DC14C0E0E0E0936B1225
:100C3A00E92DFA2DDE01AF59BF4FEA0FFB1FFF93D3
:100C4A00EF93C0DBAF91BF91EC93E1E0F0E09E0E31
:100C5A00AF1E00240B140C0424F4103011F00030E1
:100C6A0009F059C166DEE0E0E0936C1210E09924C5
:100C7A00AA24FE01EF59FF4FFA93EA93ACE0B2E1DE
:100C8A0063DDE03011F40C949007E1E0E0936B121D
:100C9A00FE01EF59FF4FFA93EA93A2E1B2E166DD52
:100CAA009F01DE01AF59BF4FA20FB31FAC9186DD82
:100CBA00DE01A15ABF4FED93FC93DE01AF59BF4F3E
:100CCA0083DDDE01A55ABF4FED93FC93FE01EF5978
:100CDA00FF4FFA93EA93A8E1B2E136DDE030B9F1C9
:100CEA00FE01EF59FF4FFA93EA93ADE1B2E13EDD1F
:100CFA00AF01DE01AF59BF4FA40FB51FAC915EDD46
:100D0A00DE01A35ABF4FED93FC93309751F40E9432
:100D1A00BD09A8E1B2E00E94F909E0E0E09363129C
:100D2A0012C0DE01A35ABF4F0D90BC91A02D11979E
:100D3A0061F40E94BD09ACE1B2E00E94F909E1E068
:100D4A00E0936312EFEFE0930B01F3DDB7C0EFE13D
:100D5A00F2E0FA93EA93FE01E35AFF4F0190F08121
:100D6A00E02D0E94730A0E949B0AFE01EB59FF4F75
:100D7A000190F081E02D0E94730A0E949B0A88E08C
:100D8A0067D22A96DE01A55ABF4F0D90BC91A02DBD
:100D9A00A83EE3E0BE071CF0E6E0F0E01AC0DE0180
:100DAA00A55ABF4F0D90BC91A02DA436E0E0BE0716
:100DBA001CF0E5E0F0E00DC0DE01A55ABF4F0D9032
:100DCA00BC91A02D1A971CF0E4E0F0E002C0E3E029
:100DDA00F0E0DE01A75ABF4FED93FC93E4E4F2E0A2
:100DEA00FA93EA9380E034D22296DE01A75ABF4FE3
:100DFA00ED91FD913196FE93EE93FE01E75AFF4F76
:100E0A000190F081E02DE20FF31FDE01AF59BF4FD1
:100E1A00AE0FBF1FAC9138DBFE01E55AFF4F0190C0
:100E2A00F081E02D3396DE01A75ABF4F0D90BC9199
:100E3A00A02DAE17BF07CCF2E6E6F2E0FA93EA93EA
:100E4A0080E006D22296DE010E945209DE01A95AEA
:100E5A00BF4FED93FC93E0E0E0936B12E2E8F2E01F
:100E6A00FA93EA93FE01EF59FF4F0190F081E02DCA
:100E7A000E94730A0E949B0AFE01E35AFF4F0190E7
:100E8A00F081E02D0E94730A0E949B0A88E0E0D15B
:100E9A002A96A4E6B0E00E94610AE5E9F2E0FA9334
:100EAA00EA93FE013296662777270E949B0A84E01E
:100EBA00CFD12696A4E6B0E00E94610AE0E0E09372
:100ECA006B12EAE9F2E0FA93EA93FE01EF59FF4F57
:100EDA000190F081E02D0E94730A0E949B0A84E02F
:100EEA00B7D12696A4E6B0E00E94610AEAE9F2E0E8
:100EFA00FA93EA93FE01EF59FF4F0190F081E02D3A
:100F0A000E94730A0E949B0A84E0A2D12696A4E654
:100F1A00B0E00E94610A00240B140C0424F410307F
:100F2A0011F0003009F404C000E0E0E0E0936B1235
:100F3A00772039F001E0E0E0E0936B1293DAAE2F0C
:100F4A0053DA63CEFFCFBA93AA93AA810E94F9011A
:100F5A00A881B981ED91FD913196FE93EE930C949F
:100F6A000A0ABA93AA9326970E94A00A10E0AC85AF
:100F7A00BD85E0E0F0E0ED93FC93EA89FB893196C8
:100F8A00EA8BFB8B3197E4912E2FE03011F40C940D
:100F9A002509E12FE03059F4253211F411E006C099
:100FAA002A93AD85BE85EF85F889099548C1E13058
:100FBA00C9F4253239F42A93AD85BE85EF85F889BF
:100FCA0009953CC112E040E000E02D3211F401E045
:100FDA0036C12B3211F44BE232C1203211F440E215
:100FEA002EC102C0E23039F450E013E0203311F48C
:100FFA00006825C104C0E33011F00C9424092033A1
:10100A0010F02A3308F007C0AAE05A9F502DE22FA9
:10101A00E0535E0F14C1E22FE33669F4E889F989D7
:10102A003497E88BF98BA481AA93AD85BE85EF85A9
:10103A00F889099503C1E33791F4E889F989349766
:10104A00E88BF98BA889B98914960E94930AEE83D2
:10105A00FF83AE81BF810E9452091E2F14C0E03760
:10106A00B1F4E889F9893497E88BF98BA889B989A9
:10107A0014960E94930AEE83FF83AE81BF810E9479
:10108A005E091E2F086002600F7730E043C0E43625
:10109A0011F0E93611F4046002C0E53731F4E4EEE8
:1010AA00F0E0EE83FF8315E00DC0E83511F4086027
:1010BA0004C0E83711F00C942309EEEEF0E0EE8359
:1010CA00FF8314E002FF1AC0E889F9893497E88B94
:1010DA00F98BA889B98914960E94930AEA87FB8733
:1010EA00AB85AA232AF40E946F0AEA87FB874DE29E
:1010FA00403011F01F5F01C00B7F0CC0E889F989ED
:10110A003497E88BF98BA889B98914960E94930AB7
:10111A00EA87FB8700FD15C0151798F407FF08C07A
:10112A0002FF04C00B7F242F115001C020E301C02D
:10113A0020E22A93AD85BE85EF85F889099551503D
:10114A00EBCF312F01FF1BC03030C1F003FF06C0C7
:10115A00EE81FF812591EE83FF8305C0AE81BF81B9
:10116A002D91AE83BF832A93AD85BE85EF85F8891D
:10117A000995503009F051503150E6CF52C020E362
:10118A00EE81FF810E94970AE887F987EE81FF8145
:10119A003296EE83FF83E885F985AA85BB85AE176B
:1011AA00BF0750F02F5FA885B985EA85FB85EA1B42
:1011BA00FB0BEA87FB87EFCF2A3328F003FF02C035
:1011CA00295F01C0295D04FD1DC0213320F4A885D3
:1011DA00B985119709F409C0531710F000FF01C02F
:1011EA001AC020E207FF0EC020E3006102FF0AC016
:1011FA000B7F4A93AD85BE85EF85F88909955030F6
:10120A0009F051502A93AD85BE85EF85F889099575
:10121A00503009F051503150A885B985129708F01D
:10122A00AECF00FF0BC0503049F05150E0E2EA93D4
:10123A00AD85BE85EF85F8890995F5CF10E09DCE7D
:10124A00AC85BD850E94930A0E94A70A64960895F8
:10125A00FF92F82E26971A930A93DE0114960E949B
:10126A006B0A8D01E0E0EC83ED83EE83EF83DE0110
:10127A0018960E946B0A0E94930AFA93EA931A93A9
:10128A000A93E8EAF7E0FA93EA93DE01189669DE30
:10129A00198108812896FF900895BA93AA93A99173
:1012AA00B991EE27FF276D91662311F03196FBCF96
:1012BA000895BA93AA93AA27BB27E991F9910590B1
:1012CA00002011F01196FBCFFD010895BA93AA935D
:1012DA00AA81BB81CD01E881F9817191772311F44B
:1012EA00FC0109C06D916717C1F30196DC01662301
:1012FA0091F7EE27FF2724960895AA93E091050116
:10130A00EF70AE2FE881E07FEA2BE093050187E0DA
:10131A008A95F1F7E0910501E460E093050182E125
:10132A008A95F1F7E0910501EB7FE093050182E1EF
:10133A008A95F1F7BFC0AA93A881DFDFE881E29519
:10134A00E883A881DADF88EB8A95F1F7B3C0AA931C
:10135A00E881F0E0EE58FD4EE081A981AE0FEBDFA7
:10136A00E981E0937612E881E09377122296089554
:10137A00A2E0E1DFA3E0B0E00E94610AACE0DBDFBB
:10138A00A1E0D9DFA3E0B0E00E94610AE0E0E093C7
:10139A007712E09376120895AA93A881AA3031F0C1
:1013AA00E0917812A0917612AE1760F0E0E0EA932D
:1013BA00A0917712AF5FA0937712C9DFA881AA30F4
:1013CA0009F478C0E0917612EF5FE0937612E0912B
:1013DA000501E160E0930501A881ADDFE091050117
:1013EA00EE7FE093050166C0BA93AA931A93E98146
:1013FA00FA813196E983FA833197E4911E2FE0301E
:10140A0019F0A12FC9DFF3CF188123960895AA9363
:10141A00E0910401E06FE0930401E0910401E460CB
:10142A00E0930401E0910401E160E0930401E0919A
:10143A000401E260E0930401E0910501EB7FE0938F
:10144A000501E0910501EE7FE0930501E0910501B8
:10145A00ED7FE0930501E881E0937812E058E0938C
:10146A007412E881E054E0937512A4E1B0E00E949E
:10147A00610AA0E342DF84E191E00197F1F7A0E37A
:10148A003CDF84E191E00197F1F7A0E336DF84E1E4
:10149A0091E00197F1F7A0E230DF84E191E0019752
:1014AA00F1F7A8E248DFA4E046DFA5E844DFA6E0BA
:1014BA0042DF5EDF21960895109639F08DEC9AE0AE
:1014CA000197F1F7A8951197C9F708950024AF0D70
:1014DA00B01D0895F195E195F04008956F2F660FBC
:1014EA00660B762F0895FA9FF02DEB9FF00DEA9F79
:1014FA00E02DF10D089504D0F6DF0EF4EBDF089528
:10150A00E894F7FF02C0E6DF6894B7FF06C0A0952B
:10151A00B095119600F8039400FA0895ED91FC91A4
:10152A00119708950590F491E02D08957A936A939E
:10153A00FA93EA9308955A934A933A932A931A93F9
:10154A000A9308955D814C813B812A811981088122
:10155A000895AC0FBD1F05900D928A95E1F7089585
:00000001FF
